{
  "contractName": "Bank",
  "abi": [
    {
      "inputs": [],
      "stateMutability": "payable",
      "type": "constructor",
      "payable": true
    },
    {
      "stateMutability": "payable",
      "type": "receive",
      "payable": true
    },
    {
      "inputs": [],
      "name": "invest",
      "outputs": [],
      "stateMutability": "payable",
      "type": "function",
      "payable": true
    },
    {
      "inputs": [],
      "name": "getBankFunds",
      "outputs": [
        {
          "internalType": "uint256",
          "name": "",
          "type": "uint256"
        }
      ],
      "stateMutability": "view",
      "type": "function",
      "constant": true
    },
    {
      "inputs": [],
      "name": "register",
      "outputs": [],
      "stateMutability": "payable",
      "type": "function",
      "payable": true
    },
    {
      "inputs": [],
      "name": "deposit",
      "outputs": [],
      "stateMutability": "payable",
      "type": "function",
      "payable": true
    },
    {
      "inputs": [
        {
          "internalType": "uint256",
          "name": "amount",
          "type": "uint256"
        }
      ],
      "name": "withdraw",
      "outputs": [],
      "stateMutability": "payable",
      "type": "function",
      "payable": true
    },
    {
      "inputs": [],
      "name": "getBalance",
      "outputs": [
        {
          "internalType": "uint256",
          "name": "",
          "type": "uint256"
        }
      ],
      "stateMutability": "view",
      "type": "function",
      "constant": true
    },
    {
      "inputs": [],
      "name": "getLoanStatus",
      "outputs": [
        {
          "internalType": "uint256",
          "name": "",
          "type": "uint256"
        },
        {
          "internalType": "uint256",
          "name": "",
          "type": "uint256"
        }
      ],
      "stateMutability": "view",
      "type": "function",
      "constant": true
    },
    {
      "inputs": [
        {
          "internalType": "uint256",
          "name": "amount",
          "type": "uint256"
        }
      ],
      "name": "getLoan",
      "outputs": [],
      "stateMutability": "payable",
      "type": "function",
      "payable": true
    },
    {
      "inputs": [],
      "name": "returnLoan",
      "outputs": [],
      "stateMutability": "nonpayable",
      "type": "function"
    }
  ],
  "bytecode": "0x60806040526802b5e3af16b1880000341015610050576040517f08c379a00000000000000000000000000000000000000000000000000000000081526004016100479061019c565b60405180910390fd5b33600160006101000a81548173ffffffffffffffffffffffffffffffffffffffff021916908373ffffffffffffffffffffffffffffffffffffffff16021790555060016000803073ffffffffffffffffffffffffffffffffffffffff1673ffffffffffffffffffffffffffffffffffffffff16815260200190815260200160002060020160006101000a81548160ff021916908315150217905550346000803073ffffffffffffffffffffffffffffffffffffffff1673ffffffffffffffffffffffffffffffffffffffff168152602001908152602001600020600101819055506101cd565b60006101436030836101bc565b91507f596f752063616e206e6f74206f70656e20612062616e6b2077697468206c657360008301527f73207468616e20353020657468657221000000000000000000000000000000006020830152604082019050919050565b600060208201905081810360008301526101b581610136565b9050919050565b600082825260208201905092915050565b611a6f80620001dd6000396000f3fe60806040526004361061008a5760003560e01c8063504006ca11610059578063504006ca1461011257806372dde3fe1461012e578063acc1ab1314610145578063d0e30db014610171578063e8b5e51f1461017b57610091565b806312065fe0146100965780631aa3a008146100c15780632e1a7d4d146100cb5780634cb14f12146100e757610091565b3661009157005b600080fd5b3480156100a257600080fd5b506100ab610185565b6040516100b89190611850565b60405180910390f35b6100c961025c565b005b6100e560048036038101906100e091906111f6565b610524565b005b3480156100f357600080fd5b506100fc61071b565b6040516101099190611850565b60405180910390f35b61012c600480360381019061012791906111f6565b6107f4565b005b34801561013a57600080fd5b50610143610ad5565b005b34801561015157600080fd5b5061015a610db9565b60405161016892919061186b565b60405180910390f35b610179610fcc565b005b6101836110f7565b005b60008060003373ffffffffffffffffffffffffffffffffffffffff1673ffffffffffffffffffffffffffffffffffffffff16815260200190815260200160002060020160009054906101000a900460ff16610215576040517f08c379a000000000000000000000000000000000000000000000000000000000815260040161020c90611710565b60405180910390fd5b6000803373ffffffffffffffffffffffffffffffffffffffff1673ffffffffffffffffffffffffffffffffffffffff16815260200190815260200160002060010154905090565b6000803373ffffffffffffffffffffffffffffffffffffffff1673ffffffffffffffffffffffffffffffffffffffff16815260200190815260200160002060020160009054906101000a900460ff16156102eb576040517f08c379a00000000000000000000000000000000000000000000000000000000081526004016102e290611750565b60405180910390fd5b670de0b6b3a7640000341015610336576040517f08c379a000000000000000000000000000000000000000000000000000000000815260040161032d90611730565b60405180910390fd5b6000670de0b6b3a76400003461034c9190611986565b905060016000803073ffffffffffffffffffffffffffffffffffffffff1673ffffffffffffffffffffffffffffffffffffffff16815260200190815260200160002060010160008282546103a091906118a5565b9250508190555060016000803373ffffffffffffffffffffffffffffffffffffffff1673ffffffffffffffffffffffffffffffffffffffff16815260200190815260200160002060020160006101000a81548160ff021916908315150217905550806000803373ffffffffffffffffffffffffffffffffffffffff1673ffffffffffffffffffffffffffffffffffffffff16815260200190815260200160002060010181905550426000803373ffffffffffffffffffffffffffffffffffffffff1673ffffffffffffffffffffffffffffffffffffffff1681526020019081526020016000206000018190555060008060003373ffffffffffffffffffffffffffffffffffffffff1673ffffffffffffffffffffffffffffffffffffffff1681526020019081526020016000206003016000018190555060008060003373ffffffffffffffffffffffffffffffffffffffff1673ffffffffffffffffffffffffffffffffffffffff1681526020019081526020016000206003016001018190555050565b6000803373ffffffffffffffffffffffffffffffffffffffff1673ffffffffffffffffffffffffffffffffffffffff16815260200190815260200160002060020160009054906101000a900460ff166105b2576040517f08c379a00000000000000000000000000000000000000000000000000000000081526004016105a990611710565b60405180910390fd5b600081116105f5576040517f08c379a00000000000000000000000000000000000000000000000000000000081526004016105ec906117d0565b60405180910390fd5b806000803373ffffffffffffffffffffffffffffffffffffffff1673ffffffffffffffffffffffffffffffffffffffff168152602001908152602001600020600101541015610679576040517f08c379a000000000000000000000000000000000000000000000000000000000815260040161067090611770565b60405180910390fd5b3373ffffffffffffffffffffffffffffffffffffffff166108fc829081150290604051600060405180830381858888f193505050501580156106bf573d6000803e3d6000fd5b50806000803373ffffffffffffffffffffffffffffffffffffffff1673ffffffffffffffffffffffffffffffffffffffff16815260200190815260200160002060010160008282546107119190611986565b9250508190555050565b6000600160009054906101000a900473ffffffffffffffffffffffffffffffffffffffff1673ffffffffffffffffffffffffffffffffffffffff163373ffffffffffffffffffffffffffffffffffffffff16146107ad576040517f08c379a00000000000000000000000000000000000000000000000000000000081526004016107a4906117f0565b60405180910390fd5b6000803073ffffffffffffffffffffffffffffffffffffffff1673ffffffffffffffffffffffffffffffffffffffff16815260200190815260200160002060010154905090565b600a6000803373ffffffffffffffffffffffffffffffffffffffff1673ffffffffffffffffffffffffffffffffffffffff16815260200190815260200160002060000154426108439190611986565b11610883576040517f08c379a000000000000000000000000000000000000000000000000000000000815260040161087a90611790565b60405180910390fd5b60008060003373ffffffffffffffffffffffffffffffffffffffff1673ffffffffffffffffffffffffffffffffffffffff168152602001908152602001600020600301600001541461090a576040517f08c379a000000000000000000000000000000000000000000000000000000000815260040161090190611810565b60405180910390fd5b806000803073ffffffffffffffffffffffffffffffffffffffff1673ffffffffffffffffffffffffffffffffffffffff1681526020019081526020016000206001015411801561096257506802b5e3af16b188000081105b6109a1576040517f08c379a0000000000000000000000000000000000000000000000000000000008152600401610998906116d0565b60405180910390fd5b3373ffffffffffffffffffffffffffffffffffffffff166108fc829081150290604051600060405180830381858888f193505050501580156109e7573d6000803e3d6000fd5b50806000803373ffffffffffffffffffffffffffffffffffffffff1673ffffffffffffffffffffffffffffffffffffffff16815260200190815260200160002060030160000181905550426000803373ffffffffffffffffffffffffffffffffffffffff1673ffffffffffffffffffffffffffffffffffffffff16815260200190815260200160002060030160010181905550806000803073ffffffffffffffffffffffffffffffffffffffff1673ffffffffffffffffffffffffffffffffffffffff1681526020019081526020016000206001016000828254610acb9190611986565b9250508190555050565b600060029050600063bbf81e006000803373ffffffffffffffffffffffffffffffffffffffff1673ffffffffffffffffffffffffffffffffffffffff1681526020019081526020016000206003016001015442610b329190611986565b836000803373ffffffffffffffffffffffffffffffffffffffff1673ffffffffffffffffffffffffffffffffffffffff16815260200190815260200160002060030160000154610b82919061192c565b610b8c919061192c565b610b9691906118fb565b90506000816000803373ffffffffffffffffffffffffffffffffffffffff1673ffffffffffffffffffffffffffffffffffffffff16815260200190815260200160002060030160000154610bea91906118a5565b9050806000803373ffffffffffffffffffffffffffffffffffffffff1673ffffffffffffffffffffffffffffffffffffffff168152602001908152602001600020600101541015610c70576040517f08c379a0000000000000000000000000000000000000000000000000000000008152600401610c67906117b0565b60405180910390fd5b806000803373ffffffffffffffffffffffffffffffffffffffff1673ffffffffffffffffffffffffffffffffffffffff1681526020019081526020016000206001016000828254610cc19190611986565b92505081905550806000803073ffffffffffffffffffffffffffffffffffffffff1673ffffffffffffffffffffffffffffffffffffffff1681526020019081526020016000206001016000828254610d1991906118a5565b9250508190555060008060003373ffffffffffffffffffffffffffffffffffffffff1673ffffffffffffffffffffffffffffffffffffffff1681526020019081526020016000206003016000018190555060008060003373ffffffffffffffffffffffffffffffffffffffff1673ffffffffffffffffffffffffffffffffffffffff16815260200190815260200160002060030160010181905550505050565b60008060008060003373ffffffffffffffffffffffffffffffffffffffff1673ffffffffffffffffffffffffffffffffffffffff168152602001908152602001600020600301600001541415610e44576040517f08c379a0000000000000000000000000000000000000000000000000000000008152600401610e3b90611830565b60405180910390fd5b600060029050600063bbf81e006000803373ffffffffffffffffffffffffffffffffffffffff1673ffffffffffffffffffffffffffffffffffffffff1681526020019081526020016000206003016001015442610ea19190611986565b836000803373ffffffffffffffffffffffffffffffffffffffff1673ffffffffffffffffffffffffffffffffffffffff16815260200190815260200160002060030160000154610ef1919061192c565b610efb919061192c565b610f0591906118fb565b90506000816000803373ffffffffffffffffffffffffffffffffffffffff1673ffffffffffffffffffffffffffffffffffffffff16815260200190815260200160002060030160000154610f5991906118a5565b905060006301e133806000803373ffffffffffffffffffffffffffffffffffffffff1673ffffffffffffffffffffffffffffffffffffffff1681526020019081526020016000206003016001015442610fb29190611986565b610fbc91906118fb565b9050818195509550505050509091565b6000803373ffffffffffffffffffffffffffffffffffffffff1673ffffffffffffffffffffffffffffffffffffffff16815260200190815260200160002060020160009054906101000a900460ff1661105a576040517f08c379a000000000000000000000000000000000000000000000000000000000815260040161105190611710565b60405180910390fd5b6000341161109d576040517f08c379a0000000000000000000000000000000000000000000000000000000008152600401611094906116f0565b60405180910390fd5b346000803373ffffffffffffffffffffffffffffffffffffffff1673ffffffffffffffffffffffffffffffffffffffff16815260200190815260200160002060010160008282546110ee91906118a5565b92505081905550565b600160009054906101000a900473ffffffffffffffffffffffffffffffffffffffff1673ffffffffffffffffffffffffffffffffffffffff163373ffffffffffffffffffffffffffffffffffffffff1614611187576040517f08c379a000000000000000000000000000000000000000000000000000000000815260040161117e906117f0565b60405180910390fd5b346000803073ffffffffffffffffffffffffffffffffffffffff1673ffffffffffffffffffffffffffffffffffffffff16815260200190815260200160002060010160008282546111d891906118a5565b92505081905550565b6000813590506111f081611a22565b92915050565b60006020828403121561120857600080fd5b6000611216848285016111e1565b91505092915050565b600061122c601483611894565b91507f546f6f206d75636820746f2061736b20666f72210000000000000000000000006000830152602082019050919050565b600061126c602583611894565b91507f4465706f73697420616d6f756e74206d7573742062652067726561746572207460008301527f68616e20300000000000000000000000000000000000000000000000000000006020830152604082019050919050565b60006112d2604983611894565b91507f596f75206d75737420626520726567697374657265642077697468207468652060008301527f62616e6b20746f2062652061626c6520746f20706572666f726d20746869732060208301527f66756e6374696f6e2100000000000000000000000000000000000000000000006040830152606082019050919050565b600061135e602f83611894565b91507f596f75206e6565642061746c65617374203120657468657220746f206f70656e60008301527f20757020616e206163636f756e742100000000000000000000000000000000006020830152604082019050919050565b60006113c4601983611894565b91507f596f7527726520616c72656164792072656769737465726564000000000000006000830152602082019050919050565b6000611404601283611894565b91507f496e73756666696369656e742066756e647300000000000000000000000000006000830152602082019050919050565b6000611444605c83611894565b91507f596f75206e65656420746f20626520726567697374657265642077697468207460008301527f68652062616e6b20666f722061746c656173742031206d696e75746520746f2060208301527f62652061626c6520746f206170706c7920666f722061206c6f616e21000000006040830152606082019050919050565b60006114d0603083611894565b91507f596f7520646f206e6f74206861766520656e6f7567682066756e647320746f2060008301527f726570617920796f7572206c6f616e21000000000000000000000000000000006020830152604082019050919050565b6000611536602883611894565b91507f5769746864726177616c20616d6f756e74206d7573742062652067726561746560008301527f72207468616e20300000000000000000000000000000000000000000000000006020830152604082019050919050565b600061159c603983611894565b91507f596f75206d75737420626520746865206f776e657220746f2062652061626c6560008301527f20746f2061636365737320746869732066756e6374696f6e21000000000000006020830152604082019050919050565b6000611602604583611894565b91507f596f75206e65656420746f20726570617920796f75722070726576696f75732060008301527f6c6f616e20746f2062652061626c6520746f206170706c7920666f7220616e6f60208301527f74686572210000000000000000000000000000000000000000000000000000006040830152606082019050919050565b600061168e601e83611894565b91507f596f7520646f6e2774206861766520616e20616374697665206c6f616e2100006000830152602082019050919050565b6116ca816119ba565b82525050565b600060208201905081810360008301526116e98161121f565b9050919050565b600060208201905081810360008301526117098161125f565b9050919050565b60006020820190508181036000830152611729816112c5565b9050919050565b6000602082019050818103600083015261174981611351565b9050919050565b60006020820190508181036000830152611769816113b7565b9050919050565b60006020820190508181036000830152611789816113f7565b9050919050565b600060208201905081810360008301526117a981611437565b9050919050565b600060208201905081810360008301526117c9816114c3565b9050919050565b600060208201905081810360008301526117e981611529565b9050919050565b600060208201905081810360008301526118098161158f565b9050919050565b60006020820190508181036000830152611829816115f5565b9050919050565b6000602082019050818103600083015261184981611681565b9050919050565b600060208201905061186560008301846116c1565b92915050565b600060408201905061188060008301856116c1565b61188d60208301846116c1565b9392505050565b600082825260208201905092915050565b60006118b0826119ba565b91506118bb836119ba565b9250827fffffffffffffffffffffffffffffffffffffffffffffffffffffffffffffffff038211156118f0576118ef6119c4565b5b828201905092915050565b6000611906826119ba565b9150611911836119ba565b925082611921576119206119f3565b5b828204905092915050565b6000611937826119ba565b9150611942836119ba565b9250817fffffffffffffffffffffffffffffffffffffffffffffffffffffffffffffffff048311821515161561197b5761197a6119c4565b5b828202905092915050565b6000611991826119ba565b915061199c836119ba565b9250828210156119af576119ae6119c4565b5b828203905092915050565b6000819050919050565b7f4e487b7100000000000000000000000000000000000000000000000000000000600052601160045260246000fd5b7f4e487b7100000000000000000000000000000000000000000000000000000000600052601260045260246000fd5b611a2b816119ba565b8114611a3657600080fd5b5056fea264697066735822122014a80797b53f8f5b93b99b749f106fae844db62fba3add9879ea1ec4971960bc64736f6c63430008000033",
  "immutableReferences": {},
  "source": "// SPDX-License-Identifier: MIT\r\npragma solidity ^0.8.0;\r\n\r\n struct loan_status {\r\n    uint256 amount;\r\n    uint256 time;\r\n}\r\n\r\nstruct user {\r\n    uint256 joining_date;\r\n    uint256 balance;\r\n    bool exists;\r\n    loan_status status;\r\n}\r\n\r\ncontract Bank {\r\n    mapping(address => user) private users;\r\n    address owner;\r\n\r\n    constructor() payable {\r\n        require(msg.value >= 50 ether, \"You can not open a bank with less than 50 ether!\");\r\n\r\n        owner = msg.sender;\r\n        users[address(this)].exists = true;\r\n        users[address(this)].balance = msg.value;\r\n    }\r\n\r\n    receive() external payable {}\r\n\r\n    modifier isOwner {\r\n        require(msg.sender == owner, \"You must be the owner to be able to access this function!\");\r\n        _;\r\n    }\r\n\r\n    function invest() public payable isOwner {\r\n        users[address(this)].balance += msg.value;\r\n    }\r\n\r\n    function getBankFunds() public view isOwner returns(uint256){\r\n        return users[address(this)].balance;\r\n    }\r\n\r\n    function register() public payable{\r\n        require(!users[msg.sender].exists, \"You're already registered\");\r\n        require(msg.value >= 1 ether, \"You need atleast 1 ether to open up an account!\");\r\n\r\n        uint256 rest = msg.value - 1 ether;\r\n        users[address(this)].balance += 1;\r\n        users[msg.sender].exists = true;\r\n        users[msg.sender].balance = rest;\r\n        users[msg.sender].joining_date = block.timestamp;\r\n        users[msg.sender].status.amount = 0;\r\n        users[msg.sender].status.time = 0;\r\n    }\r\n\r\n    modifier isAccountOwner {\r\n        require(users[msg.sender].exists, \"You must be registered with the bank to be able to perform this function!\");\r\n        _;\r\n    }\r\n\r\n    function deposit() public payable isAccountOwner {\r\n        require(msg.value > 0, \"Deposit amount must be greater than 0\");\r\n        users[msg.sender].balance += msg.value;\r\n    }\r\n\r\n    function withdraw(uint256 amount) public payable isAccountOwner{\r\n        require(amount > 0, \"Withdrawal amount must be greater than 0\");\r\n        require(users[msg.sender].balance >= amount, \"Insufficient funds\");\r\n        payable(msg.sender).transfer(amount);\r\n        users[msg.sender].balance -= amount;\r\n    }\r\n\r\n    function getBalance() public view isAccountOwner returns (uint256) {\r\n        return users[msg.sender].balance;\r\n    }\r\n\r\n    modifier canGetLoan {\r\n        require(block.timestamp-users[msg.sender].joining_date > 10 seconds, \"You need to be registered with the bank for atleast 1 minute to be able to apply for a loan!\");\r\n        require(users[msg.sender].status.amount == 0, \"You need to repay your previous loan to be able to apply for another!\");\r\n        _;\r\n    }\r\n\r\n    function getLoanStatus() public view returns (\r\n        uint256, // amount to be paid\r\n        uint256  // time elapsed\r\n    ){\r\n        require(users[msg.sender].status.amount != 0, \"You don't have an active loan!\");\r\n\r\n        uint256 interestRate = 2; // Assuming a 2% interest rate per year\r\n\r\n        // Calculate the interest accrued\r\n        uint256 interestAccrued = (users[msg.sender].status.amount * interestRate * (block.timestamp - users[msg.sender].status.time)) / (365 days * 100);\r\n\r\n        // Calculate the total amount to be paid\r\n        uint256 totalAmountToBePaid = users[msg.sender].status.amount + interestAccrued;\r\n\r\n        // Calculate the time elapsed in years\r\n        uint256 timeElapsedInYears = (block.timestamp - users[msg.sender].status.time) / 365 days;\r\n\r\n        return (totalAmountToBePaid, timeElapsedInYears);\r\n    }\r\n\r\n    function getLoan(uint256 amount) public payable canGetLoan {\r\n        require(users[address(this)].balance > amount && amount < 50 ether, \"Too much to ask for!\");\r\n\r\n        payable(msg.sender).transfer(amount);\r\n        users[msg.sender].status.amount = amount;\r\n        users[msg.sender].status.time = block.timestamp;\r\n\r\n        users[address(this)].balance -= amount;\r\n    }\r\n\r\n    function returnLoan() public {\r\n        uint256 interestRate = 2; // Assuming a 2% interest rate per year\r\n\r\n        // Calculate the interest accrued\r\n        uint256 interestAccrued = (users[msg.sender].status.amount * interestRate * (block.timestamp - users[msg.sender].status.time)) / (365 days * 100);\r\n\r\n        // Calculate the total amount to be paid\r\n        uint256 totalAmountToBePaid = users[msg.sender].status.amount + interestAccrued;\r\n\r\n        require(users[msg.sender].balance >= totalAmountToBePaid, \"You do not have enough funds to repay your loan!\");\r\n\r\n        users[msg.sender].balance -= totalAmountToBePaid;\r\n        users[address(this)].balance += totalAmountToBePaid;\r\n\r\n        users[msg.sender].status.amount = 0;\r\n        users[msg.sender].status.time = 0;\r\n    }\r\n}",
  "sourcePath": "D:\\Semester 07\\BlockChain by sir Asim\\Truffle\\contracts\\Bank.sol",
  "compiler": {
    "name": "solc",
    "version": "0.8.0+commit.c7dfd78e.Emscripten.clang"
  },
  "schemaVersion": "3.4.16",
  "updatedAt": "2023-12-05T20:23:40.266Z",
  "networkType": "ethereum",
  "devdoc": {
    "kind": "dev",
    "methods": {},
    "version": 1
  },
  "userdoc": {
    "kind": "user",
    "methods": {},
    "version": 1
  }
}